{
  "_format": "hh-sol-artifact-1",
  "contractName": "SimpleAccountFactory",
  "sourceName": "contracts/samples/SimpleAccountFactory.sol",
  "abi": [
    {
      "inputs": [
        {
          "internalType": "contract IEntryPoint",
          "name": "_entryPoint",
          "type": "address"
        }
      ],
      "stateMutability": "nonpayable",
      "type": "constructor"
    },
    {
      "inputs": [],
      "name": "accountImplementation",
      "outputs": [
        {
          "internalType": "contract SimpleAccount",
          "name": "",
          "type": "address"
        }
      ],
      "stateMutability": "view",
      "type": "function"
    },
    {
      "inputs": [
        {
          "internalType": "address",
          "name": "owner",
          "type": "address"
        },
        {
          "internalType": "uint256",
          "name": "salt",
          "type": "uint256"
        }
      ],
      "name": "createAccount",
      "outputs": [
        {
          "internalType": "contract SimpleAccount",
          "name": "ret",
          "type": "address"
        }
      ],
      "stateMutability": "nonpayable",
      "type": "function"
    },
    {
      "inputs": [
        {
          "internalType": "address",
          "name": "owner",
          "type": "address"
        },
        {
          "internalType": "uint256",
          "name": "salt",
          "type": "uint256"
        }
      ],
      "name": "getAddress",
      "outputs": [
        {
          "internalType": "address",
          "name": "",
          "type": "address"
        }
      ],
      "stateMutability": "view",
      "type": "function"
    }
  ],
  "bytecode": "0x60a060405234801561001057600080fd5b5060405161342a38038061342a83398101604081905261002f91610088565b8060405161003c9061007b565b6001600160a01b039091168152602001604051809103906000f080158015610068573d6000803e3d6000fd5b506001600160a01b0316608052506100b8565b6126a480610d8683390190565b60006020828403121561009a57600080fd5b81516001600160a01b03811681146100b157600080fd5b9392505050565b608051610ca66100e060003960008181604b0152818161011401526102580152610ca66000f3fe608060405234801561001057600080fd5b50600436106100415760003560e01c806311464fbe146100465780635fbfb9cf146100965780638cb84e18146100a9575b600080fd5b61006d7f000000000000000000000000000000000000000000000000000000000000000081565b60405173ffffffffffffffffffffffffffffffffffffffff909116815260200160405180910390f35b61006d6100a436600461039d565b6100bc565b61006d6100b736600461039d565b6101ee565b6000806100c984846101ee565b905073ffffffffffffffffffffffffffffffffffffffff81163b80156100f1575090506101e8565b60405173ffffffffffffffffffffffffffffffffffffffff8616602482015284907f000000000000000000000000000000000000000000000000000000000000000090604401604080517fffffffffffffffffffffffffffffffffffffffffffffffffffffffffffffffe08184030181529181526020820180517bffffffffffffffffffffffffffffffffffffffffffffffffffffffff167fc4d66de800000000000000000000000000000000000000000000000000000000179052516101b790610390565b6101c2929190610412565b8190604051809103906000f59050801580156101e2573d6000803e3d6000fd5b50925050505b92915050565b60006103578260001b6040518060200161020790610390565b7fffffffffffffffffffffffffffffffffffffffffffffffffffffffffffffffe082820381018352601f90910116604081905273ffffffffffffffffffffffffffffffffffffffff871660248201527f000000000000000000000000000000000000000000000000000000000000000090604401604080517fffffffffffffffffffffffffffffffffffffffffffffffffffffffffffffffe0818403018152918152602080830180517bffffffffffffffffffffffffffffffffffffffffffffffffffffffff167fc4d66de800000000000000000000000000000000000000000000000000000000179052905161030093929101610412565b604080517fffffffffffffffffffffffffffffffffffffffffffffffffffffffffffffffe08184030181529082905261033c9291602001610480565b6040516020818303038152906040528051906020012061035e565b9392505050565b60006103578383306000604051836040820152846020820152828152600b8101905060ff815360559020949350505050565b6107c1806104b083390190565b600080604083850312156103b057600080fd5b823573ffffffffffffffffffffffffffffffffffffffff811681146103d457600080fd5b946020939093013593505050565b60005b838110156103fd5781810151838201526020016103e5565b8381111561040c576000848401525b50505050565b73ffffffffffffffffffffffffffffffffffffffff83168152604060208201526000825180604084015261044d8160608501602087016103e2565b601f017fffffffffffffffffffffffffffffffffffffffffffffffffffffffffffffffe016919091016060019392505050565b600083516104928184602088016103e2565b8351908301906104a68183602088016103e2565b0194935050505056fe60806040526040516107c13803806107c183398101604081905261002291610321565b61002e82826000610035565b505061043e565b61003e8361006b565b60008251118061004b5750805b156100665761006483836100ab60201b6100291760201c565b505b505050565b610074816100d7565b6040516001600160a01b038216907fbc7cd75a20ee27fd9adebab32041f755214dbc6bffa90cc0225b39da2e5c2d3b90600090a250565b60606100d0838360405180606001604052806027815260200161079a602791396101a9565b9392505050565b6100ea8161022260201b6100551760201c565b6101515760405162461bcd60e51b815260206004820152602d60248201527f455243313936373a206e657720696d706c656d656e746174696f6e206973206e60448201526c1bdd08184818dbdb9d1c9858dd609a1b60648201526084015b60405180910390fd5b806101887f360894a13ba1a3210667c828492db98dca3e2076cc3735a920a3ca505d382bbc60001b61023160201b6100711760201c565b80546001600160a01b0319166001600160a01b039290921691909117905550565b6060600080856001600160a01b0316856040516101c691906103ef565b600060405180830381855af49150503d8060008114610201576040519150601f19603f3d011682016040523d82523d6000602084013e610206565b606091505b50909250905061021886838387610234565b9695505050505050565b6001600160a01b03163b151590565b90565b606083156102a357825160000361029c576001600160a01b0385163b61029c5760405162461bcd60e51b815260206004820152601d60248201527f416464726573733a2063616c6c20746f206e6f6e2d636f6e74726163740000006044820152606401610148565b50816102ad565b6102ad83836102b5565b949350505050565b8151156102c55781518083602001fd5b8060405162461bcd60e51b8152600401610148919061040b565b634e487b7160e01b600052604160045260246000fd5b60005b838110156103105781810151838201526020016102f8565b838111156100645750506000910152565b6000806040838503121561033457600080fd5b82516001600160a01b038116811461034b57600080fd5b60208401519092506001600160401b038082111561036857600080fd5b818501915085601f83011261037c57600080fd5b81518181111561038e5761038e6102df565b604051601f8201601f19908116603f011681019083821181831017156103b6576103b66102df565b816040528281528860208487010111156103cf57600080fd5b6103e08360208301602088016102f5565b80955050505050509250929050565b600082516104018184602087016102f5565b9190910192915050565b602081526000825180602084015261042a8160408501602087016102f5565b601f01601f19169190910160400192915050565b61034d8061044d6000396000f3fe60806040523661001357610011610017565b005b6100115b610027610022610074565b6100b9565b565b606061004e83836040518060600160405280602781526020016102f1602791396100dd565b9392505050565b73ffffffffffffffffffffffffffffffffffffffff163b151590565b90565b60006100b47f360894a13ba1a3210667c828492db98dca3e2076cc3735a920a3ca505d382bbc5473ffffffffffffffffffffffffffffffffffffffff1690565b905090565b3660008037600080366000845af43d6000803e8080156100d8573d6000f35b3d6000fd5b60606000808573ffffffffffffffffffffffffffffffffffffffff16856040516101079190610283565b600060405180830381855af49150503d8060008114610142576040519150601f19603f3d011682016040523d82523d6000602084013e610147565b606091505b509150915061015886838387610162565b9695505050505050565b606083156101fd5782516000036101f65773ffffffffffffffffffffffffffffffffffffffff85163b6101f6576040517f08c379a000000000000000000000000000000000000000000000000000000000815260206004820152601d60248201527f416464726573733a2063616c6c20746f206e6f6e2d636f6e747261637400000060448201526064015b60405180910390fd5b5081610207565b610207838361020f565b949350505050565b81511561021f5781518083602001fd5b806040517f08c379a00000000000000000000000000000000000000000000000000000000081526004016101ed919061029f565b60005b8381101561026e578181015183820152602001610256565b8381111561027d576000848401525b50505050565b60008251610295818460208701610253565b9190910192915050565b60208152600082518060208401526102be816040850160208701610253565b601f017fffffffffffffffffffffffffffffffffffffffffffffffffffffffffffffffe016919091016040019291505056fe416464726573733a206c6f772d6c6576656c2064656c65676174652063616c6c206661696c6564a26469706673582212201cd78ab6a31213989661cff2d7d05fc9b9c38b1a848e8249e2e398659a9eb7e364736f6c634300080f0033416464726573733a206c6f772d6c6576656c2064656c65676174652063616c6c206661696c6564a26469706673582212202f2903fa654bfee15fca662fa17ec2cc1be06694096f630b8341ea02ac0e85db64736f6c634300080f003360c0604052306080523480156200001557600080fd5b50604051620026a4380380620026a4833981016040819052620000389162000118565b6001600160a01b03811660a0526200004f62000056565b506200014a565b600054610100900460ff1615620000c35760405162461bcd60e51b815260206004820152602760248201527f496e697469616c697a61626c653a20636f6e747261637420697320696e697469604482015266616c697a696e6760c81b606482015260840160405180910390fd5b60005460ff908116101562000116576000805460ff191660ff9081179091556040519081527f7f26b83ff96e1f2b6a682f133852f6798a09c465da95921460cefb38474024989060200160405180910390a15b565b6000602082840312156200012b57600080fd5b81516001600160a01b03811681146200014357600080fd5b9392505050565b60805160a0516124ee620001b66000396000818161035c015281816108b80152818161095f01528181610d4101528181610fa0015281816112fc015261168e0152600081816106830152818161073301528181610a2301528181610ad30152610c1c01526124ee6000f3fe60806040526004361061012c5760003560e01c806352d1902d116100a5578063b61d27f611610074578063c399ec8811610059578063c399ec88146103e8578063c4d66de8146103fd578063f23a6e611461041d57600080fd5b8063b61d27f614610380578063bc197c81146103a057600080fd5b806352d1902d146102b35780638da5cb5b146102c8578063affed0e01461032a578063b0d691fe1461034d57600080fd5b80633659cfe6116100fc5780634a58db19116100e15780634a58db19146102785780634d44560d146102805780634f1ef286146102a057600080fd5b80633659cfe61461022a5780633a871cdd1461024a57600080fd5b806223de291461013857806301ffc9a71461015f578063150b7a021461019457806318dfb3c71461020a57600080fd5b3661013357005b600080fd5b34801561014457600080fd5b5061015d610153366004611d5b565b5050505050505050565b005b34801561016b57600080fd5b5061017f61017a366004611e0c565b610463565b60405190151581526020015b60405180910390f35b3480156101a057600080fd5b506101d96101af366004611e4e565b7f150b7a020000000000000000000000000000000000000000000000000000000095945050505050565b6040517fffffffff00000000000000000000000000000000000000000000000000000000909116815260200161018b565b34801561021657600080fd5b5061015d610225366004611f06565b610548565b34801561023657600080fd5b5061015d610245366004611f72565b61066c565b34801561025657600080fd5b5061026a610265366004611f8f565b610871565b60405190815260200161018b565b61015d6108b6565b34801561028c57600080fd5b5061015d61029b366004611fe3565b610955565b61015d6102ae36600461203e565b610a0c565b3480156102bf57600080fd5b5061026a610c02565b3480156102d457600080fd5b50600154610305906c01000000000000000000000000900473ffffffffffffffffffffffffffffffffffffffff1681565b60405173ffffffffffffffffffffffffffffffffffffffff909116815260200161018b565b34801561033657600080fd5b506001546bffffffffffffffffffffffff1661026a565b34801561035957600080fd5b507f0000000000000000000000000000000000000000000000000000000000000000610305565b34801561038c57600080fd5b5061015d61039b366004612120565b610cee565b3480156103ac57600080fd5b506101d96103bb366004612170565b7fbc197c810000000000000000000000000000000000000000000000000000000098975050505050505050565b3480156103f457600080fd5b5061026a610d3d565b34801561040957600080fd5b5061015d610418366004611f72565b610df5565b34801561042957600080fd5b506101d961043836600461220e565b7ff23a6e61000000000000000000000000000000000000000000000000000000009695505050505050565b60007fffffffff0000000000000000000000000000000000000000000000000000000082167f150b7a020000000000000000000000000000000000000000000000000000000014806104f657507fffffffff0000000000000000000000000000000000000000000000000000000082167f4e2312e000000000000000000000000000000000000000000000000000000000145b8061054257507fffffffff0000000000000000000000000000000000000000000000000000000082167f01ffc9a700000000000000000000000000000000000000000000000000000000145b92915050565b610550610f88565b8281146105be576040517f08c379a000000000000000000000000000000000000000000000000000000000815260206004820152601360248201527f77726f6e67206172726179206c656e677468730000000000000000000000000060448201526064015b60405180910390fd5b60005b83811015610665576106538585838181106105de576105de61228a565b90506020020160208101906105f39190611f72565b60008585858181106106075761060761228a565b905060200281019061061991906122b9565b8080601f01602080910402602001604051908101604052809392919081815260200183838082843760009201919091525061105b92505050565b8061065d8161234d565b9150506105c1565b5050505050565b73ffffffffffffffffffffffffffffffffffffffff7f0000000000000000000000000000000000000000000000000000000000000000163003610731576040517f08c379a000000000000000000000000000000000000000000000000000000000815260206004820152602c60248201527f46756e6374696f6e206d7573742062652063616c6c6564207468726f7567682060448201527f64656c656761746563616c6c000000000000000000000000000000000000000060648201526084016105b5565b7f000000000000000000000000000000000000000000000000000000000000000073ffffffffffffffffffffffffffffffffffffffff166107a67f360894a13ba1a3210667c828492db98dca3e2076cc3735a920a3ca505d382bbc5473ffffffffffffffffffffffffffffffffffffffff1690565b73ffffffffffffffffffffffffffffffffffffffff1614610849576040517f08c379a000000000000000000000000000000000000000000000000000000000815260206004820152602c60248201527f46756e6374696f6e206d7573742062652063616c6c6564207468726f7567682060448201527f6163746976652070726f7879000000000000000000000000000000000000000060648201526084016105b5565b610852816110d8565b6040805160008082526020820190925261086e918391906110e0565b50565b600061087b6112e4565b6108858484611383565b905061089460408501856122b9565b90506000036108a6576108a684611473565b6108af8261153c565b9392505050565b7f00000000000000000000000000000000000000000000000000000000000000006040517fb760faf900000000000000000000000000000000000000000000000000000000815230600482015273ffffffffffffffffffffffffffffffffffffffff919091169063b760faf99034906024016000604051808303818588803b15801561094157600080fd5b505af1158015610665573d6000803e3d6000fd5b61095d6115a7565b7f00000000000000000000000000000000000000000000000000000000000000006040517f205c287800000000000000000000000000000000000000000000000000000000815273ffffffffffffffffffffffffffffffffffffffff848116600483015260248201849052919091169063205c287890604401600060405180830381600087803b1580156109f057600080fd5b505af1158015610a04573d6000803e3d6000fd5b505050505050565b73ffffffffffffffffffffffffffffffffffffffff7f0000000000000000000000000000000000000000000000000000000000000000163003610ad1576040517f08c379a000000000000000000000000000000000000000000000000000000000815260206004820152602c60248201527f46756e6374696f6e206d7573742062652063616c6c6564207468726f7567682060448201527f64656c656761746563616c6c000000000000000000000000000000000000000060648201526084016105b5565b7f000000000000000000000000000000000000000000000000000000000000000073ffffffffffffffffffffffffffffffffffffffff16610b467f360894a13ba1a3210667c828492db98dca3e2076cc3735a920a3ca505d382bbc5473ffffffffffffffffffffffffffffffffffffffff1690565b73ffffffffffffffffffffffffffffffffffffffff1614610be9576040517f08c379a000000000000000000000000000000000000000000000000000000000815260206004820152602c60248201527f46756e6374696f6e206d7573742062652063616c6c6564207468726f7567682060448201527f6163746976652070726f7879000000000000000000000000000000000000000060648201526084016105b5565b610bf2826110d8565b610bfe828260016110e0565b5050565b60003073ffffffffffffffffffffffffffffffffffffffff7f00000000000000000000000000000000000000000000000000000000000000001614610cc9576040517f08c379a000000000000000000000000000000000000000000000000000000000815260206004820152603860248201527f555550535570677261646561626c653a206d757374206e6f742062652063616c60448201527f6c6564207468726f7567682064656c656761746563616c6c000000000000000060648201526084016105b5565b507f360894a13ba1a3210667c828492db98dca3e2076cc3735a920a3ca505d382bbc90565b610cf6610f88565b610d37848484848080601f01602080910402602001604051908101604052809392919081815260200183838082843760009201919091525061105b92505050565b50505050565b60007f00000000000000000000000000000000000000000000000000000000000000006040517f70a0823100000000000000000000000000000000000000000000000000000000815230600482015273ffffffffffffffffffffffffffffffffffffffff91909116906370a0823190602401602060405180830381865afa158015610dcc573d6000803e3d6000fd5b505050506040513d601f19601f82011682018060405250810190610df09190612385565b905090565b600054610100900460ff1615808015610e155750600054600160ff909116105b80610e2f5750303b158015610e2f575060005460ff166001145b610ebb576040517f08c379a000000000000000000000000000000000000000000000000000000000815260206004820152602e60248201527f496e697469616c697a61626c653a20636f6e747261637420697320616c72656160448201527f647920696e697469616c697a656400000000000000000000000000000000000060648201526084016105b5565b600080547fffffffffffffffffffffffffffffffffffffffffffffffffffffffffffffff001660011790558015610f1957600080547fffffffffffffffffffffffffffffffffffffffffffffffffffffffffffff00ff166101001790555b610f2282611642565b8015610bfe57600080547fffffffffffffffffffffffffffffffffffffffffffffffffffffffffffff00ff169055604051600181527f7f26b83ff96e1f2b6a682f133852f6798a09c465da95921460cefb38474024989060200160405180910390a15050565b3373ffffffffffffffffffffffffffffffffffffffff7f0000000000000000000000000000000000000000000000000000000000000000161480610ff357506001546c01000000000000000000000000900473ffffffffffffffffffffffffffffffffffffffff1633145b611059576040517f08c379a000000000000000000000000000000000000000000000000000000000815260206004820181905260248201527f6163636f756e743a206e6f74204f776e6572206f7220456e747279506f696e7460448201526064016105b5565b565b6000808473ffffffffffffffffffffffffffffffffffffffff16848460405161108491906123ca565b60006040518083038185875af1925050503d80600081146110c1576040519150601f19603f3d011682016040523d82523d6000602084013e6110c6565b606091505b50915091508161066557805160208201fd5b61086e6115a7565b7f4910fdfa16fed3260ed0e7147f7cc6da11a60208b5b9406d12a635614ffd91435460ff161561111857611113836116da565b505050565b8273ffffffffffffffffffffffffffffffffffffffff166352d1902d6040518163ffffffff1660e01b8152600401602060405180830381865afa92505050801561119d575060408051601f3d9081017fffffffffffffffffffffffffffffffffffffffffffffffffffffffffffffffe016820190925261119a91810190612385565b60015b611229576040517f08c379a000000000000000000000000000000000000000000000000000000000815260206004820152602e60248201527f45524331393637557067726164653a206e657720696d706c656d656e7461746960448201527f6f6e206973206e6f74205555505300000000000000000000000000000000000060648201526084016105b5565b7f360894a13ba1a3210667c828492db98dca3e2076cc3735a920a3ca505d382bbc81146112d8576040517f08c379a000000000000000000000000000000000000000000000000000000000815260206004820152602960248201527f45524331393637557067726164653a20756e737570706f727465642070726f7860448201527f6961626c6555554944000000000000000000000000000000000000000000000060648201526084016105b5565b506111138383836117e4565b3373ffffffffffffffffffffffffffffffffffffffff7f00000000000000000000000000000000000000000000000000000000000000001614611059576040517f08c379a000000000000000000000000000000000000000000000000000000000815260206004820152601c60248201527f6163636f756e743a206e6f742066726f6d20456e747279506f696e740000000060448201526064016105b5565b6000806113dd836040517f19457468657265756d205369676e6564204d6573736167653a0a3332000000006020820152603c8101829052600090605c01604051602081830303815290604052805190602001209050919050565b905061142d6113f06101408601866122b9565b8080601f01602080910402602001604051908101604052809392919081815260200183838082843760009201919091525085939250506118099050565b6001546c01000000000000000000000000900473ffffffffffffffffffffffffffffffffffffffff908116911614611469576001915050610542565b5060009392505050565b600180546020830135916bffffffffffffffffffffffff909116906000611499836123e6565b91906101000a8154816bffffffffffffffffffffffff02191690836bffffffffffffffffffffffff1602179055506bffffffffffffffffffffffff161461086e576040517f08c379a000000000000000000000000000000000000000000000000000000000815260206004820152601660248201527f6163636f756e743a20696e76616c6964206e6f6e63650000000000000000000060448201526064016105b5565b801561086e5760405160009033907fffffffffffffffffffffffffffffffffffffffffffffffffffffffffffffffff90849084818181858888f193505050503d8060008114610665576040519150601f19603f3d011682016040523d82523d6000602084013e610665565b6001546c01000000000000000000000000900473ffffffffffffffffffffffffffffffffffffffff163314806115dc57503330145b611059576040517f08c379a000000000000000000000000000000000000000000000000000000000815260206004820152600a60248201527f6f6e6c79206f776e65720000000000000000000000000000000000000000000060448201526064016105b5565b600180546bffffffffffffffffffffffff166c0100000000000000000000000073ffffffffffffffffffffffffffffffffffffffff8481168202929092179283905560405192048116917f0000000000000000000000000000000000000000000000000000000000000000909116907f47e55c76e7a6f1fd8996a1da8008c1ea29699cca35e7bcd057f2dec313b6e5de90600090a350565b73ffffffffffffffffffffffffffffffffffffffff81163b61177e576040517f08c379a000000000000000000000000000000000000000000000000000000000815260206004820152602d60248201527f455243313936373a206e657720696d706c656d656e746174696f6e206973206e60448201527f6f74206120636f6e74726163740000000000000000000000000000000000000060648201526084016105b5565b7f360894a13ba1a3210667c828492db98dca3e2076cc3735a920a3ca505d382bbc80547fffffffffffffffffffffffff00000000000000000000000000000000000000001673ffffffffffffffffffffffffffffffffffffffff92909216919091179055565b6117ed8361182d565b6000825111806117fa5750805b1561111357610d37838361187a565b6000806000611818858561189f565b91509150611825816118e4565b509392505050565b611836816116da565b60405173ffffffffffffffffffffffffffffffffffffffff8216907fbc7cd75a20ee27fd9adebab32041f755214dbc6bffa90cc0225b39da2e5c2d3b90600090a250565b60606108af838360405180606001604052806027815260200161249260279139611a97565b60008082516041036118d55760208301516040840151606085015160001a6118c987828585611b1c565b945094505050506118dd565b506000905060025b9250929050565b60008160048111156118f8576118f8612411565b036119005750565b600181600481111561191457611914612411565b0361197b576040517f08c379a000000000000000000000000000000000000000000000000000000000815260206004820152601860248201527f45434453413a20696e76616c6964207369676e6174757265000000000000000060448201526064016105b5565b600281600481111561198f5761198f612411565b036119f6576040517f08c379a000000000000000000000000000000000000000000000000000000000815260206004820152601f60248201527f45434453413a20696e76616c6964207369676e6174757265206c656e6774680060448201526064016105b5565b6003816004811115611a0a57611a0a612411565b0361086e576040517f08c379a000000000000000000000000000000000000000000000000000000000815260206004820152602260248201527f45434453413a20696e76616c6964207369676e6174757265202773272076616c60448201527f756500000000000000000000000000000000000000000000000000000000000060648201526084016105b5565b60606000808573ffffffffffffffffffffffffffffffffffffffff1685604051611ac191906123ca565b600060405180830381855af49150503d8060008114611afc576040519150601f19603f3d011682016040523d82523d6000602084013e611b01565b606091505b5091509150611b1286838387611c0b565b9695505050505050565b6000807f7fffffffffffffffffffffffffffffff5d576e7357a4501ddfe92f46681b20a0831115611b535750600090506003611c02565b6040805160008082526020820180845289905260ff881692820192909252606081018690526080810185905260019060a0016020604051602081039080840390855afa158015611ba7573d6000803e3d6000fd5b50506040517fffffffffffffffffffffffffffffffffffffffffffffffffffffffffffffffe0015191505073ffffffffffffffffffffffffffffffffffffffff8116611bfb57600060019250925050611c02565b9150600090505b94509492505050565b60608315611ca1578251600003611c9a5773ffffffffffffffffffffffffffffffffffffffff85163b611c9a576040517f08c379a000000000000000000000000000000000000000000000000000000000815260206004820152601d60248201527f416464726573733a2063616c6c20746f206e6f6e2d636f6e747261637400000060448201526064016105b5565b5081611cab565b611cab8383611cb3565b949350505050565b815115611cc35781518083602001fd5b806040517f08c379a00000000000000000000000000000000000000000000000000000000081526004016105b59190612440565b73ffffffffffffffffffffffffffffffffffffffff8116811461086e57600080fd5b60008083601f840112611d2b57600080fd5b50813567ffffffffffffffff811115611d4357600080fd5b6020830191508360208285010111156118dd57600080fd5b60008060008060008060008060c0898b031215611d7757600080fd5b8835611d8281611cf7565b97506020890135611d9281611cf7565b96506040890135611da281611cf7565b955060608901359450608089013567ffffffffffffffff80821115611dc657600080fd5b611dd28c838d01611d19565b909650945060a08b0135915080821115611deb57600080fd5b50611df88b828c01611d19565b999c989b5096995094979396929594505050565b600060208284031215611e1e57600080fd5b81357fffffffff00000000000000000000000000000000000000000000000000000000811681146108af57600080fd5b600080600080600060808688031215611e6657600080fd5b8535611e7181611cf7565b94506020860135611e8181611cf7565b935060408601359250606086013567ffffffffffffffff811115611ea457600080fd5b611eb088828901611d19565b969995985093965092949392505050565b60008083601f840112611ed357600080fd5b50813567ffffffffffffffff811115611eeb57600080fd5b6020830191508360208260051b85010111156118dd57600080fd5b60008060008060408587031215611f1c57600080fd5b843567ffffffffffffffff80821115611f3457600080fd5b611f4088838901611ec1565b90965094506020870135915080821115611f5957600080fd5b50611f6687828801611ec1565b95989497509550505050565b600060208284031215611f8457600080fd5b81356108af81611cf7565b600080600060608486031215611fa457600080fd5b833567ffffffffffffffff811115611fbb57600080fd5b84016101608187031215611fce57600080fd5b95602085013595506040909401359392505050565b60008060408385031215611ff657600080fd5b823561200181611cf7565b946020939093013593505050565b7f4e487b7100000000000000000000000000000000000000000000000000000000600052604160045260246000fd5b6000806040838503121561205157600080fd5b823561205c81611cf7565b9150602083013567ffffffffffffffff8082111561207957600080fd5b818501915085601f83011261208d57600080fd5b81358181111561209f5761209f61200f565b604051601f82017fffffffffffffffffffffffffffffffffffffffffffffffffffffffffffffffe0908116603f011681019083821181831017156120e5576120e561200f565b816040528281528860208487010111156120fe57600080fd5b8260208601602083013760006020848301015280955050505050509250929050565b6000806000806060858703121561213657600080fd5b843561214181611cf7565b935060208501359250604085013567ffffffffffffffff81111561216457600080fd5b611f6687828801611d19565b60008060008060008060008060a0898b03121561218c57600080fd5b883561219781611cf7565b975060208901356121a781611cf7565b9650604089013567ffffffffffffffff808211156121c457600080fd5b6121d08c838d01611ec1565b909850965060608b01359150808211156121e957600080fd5b6121f58c838d01611ec1565b909650945060808b0135915080821115611deb57600080fd5b60008060008060008060a0878903121561222757600080fd5b863561223281611cf7565b9550602087013561224281611cf7565b94506040870135935060608701359250608087013567ffffffffffffffff81111561226c57600080fd5b61227889828a01611d19565b979a9699509497509295939492505050565b7f4e487b7100000000000000000000000000000000000000000000000000000000600052603260045260246000fd5b60008083357fffffffffffffffffffffffffffffffffffffffffffffffffffffffffffffffe18436030181126122ee57600080fd5b83018035915067ffffffffffffffff82111561230957600080fd5b6020019150368190038213156118dd57600080fd5b7f4e487b7100000000000000000000000000000000000000000000000000000000600052601160045260246000fd5b60007fffffffffffffffffffffffffffffffffffffffffffffffffffffffffffffffff820361237e5761237e61231e565b5060010190565b60006020828403121561239757600080fd5b5051919050565b60005b838110156123b95781810151838201526020016123a1565b83811115610d375750506000910152565b600082516123dc81846020870161239e565b9190910192915050565b60006bffffffffffffffffffffffff8083168181036124075761240761231e565b6001019392505050565b7f4e487b7100000000000000000000000000000000000000000000000000000000600052602160045260246000fd5b602081526000825180602084015261245f81604085016020870161239e565b601f017fffffffffffffffffffffffffffffffffffffffffffffffffffffffffffffffe016919091016040019291505056fe416464726573733a206c6f772d6c6576656c2064656c65676174652063616c6c206661696c6564a2646970667358221220a90861c4f2bab6e3ceec2c8a3cf79e2b5b19da697f524690daac24160c17424a64736f6c634300080f0033",
  "linkReferences": {},
  "deployedLinkReferences": {}
}